:1000000049C1000078C1000076C1000074C1000041
:1000100072C1000070C100006EC100006CC1000020
:100020006AC1000068C1000066C1000064C1000030
:1000300062C1000060C100005EC100005CC1000040
:100040005AC1000058C1000056C1000054C1000050
:1000500052C1000050C100004EC100000C94320D8E
:100060004AC100000C94680B0C949E0B44C1000024
:1000700042C1000040C100003EC100003CC1000080
:100080003AC1000038C1000036C1000034C1000090
:1000900032C1000030C100002EC100002CC10000A0
:1000A0002AC1000028C1000026C1000024C10000B0
:1000B00022C1000020C100001EC100001CC10000C0
:1000C0001AC1000018C1000016C1000014C10000D0
:1000D00012C1000010C100000EC100000CC10000E0
:1000E0000AC100007A0E7D0E6C0E700E760EB40EF4
:1000F000810E850E8B0E8F0E930E990E9D0EA10E06
:10010000B40EA70EAB0EAF0E07634236B79BD8A74F
:100110001A39685618AEBAAB558C1D3CB7CC57632C
:10012000BD6DEDFD753EF6177231BF000000803FDA
:1001300008000000BE922449123EABAAAA2ABECDF6
:10014000CCCC4C3E00000080BEABAAAAAA3E000068
:100150000000BF000000803F000000000008417860
:10016000D3BB4387D1133D190E3CC3BD4282AD2B97
:100170003E68EC8276BED98FE1A93E4C80EFFFBE8F
:1001800001C4FF7F3F000000000000000A0B0209CD
:100190000C0D0E0807030401000000000000000021
:1001A000000000000000000000000000000000004F
:1001B000000000000000121110000000000000000C
:1001C000000000000000000000000000000000002F
:1001D0000102102020080810204010204080020159
:1001E000020108040201010204081020408080403E
:1001F000201008040201800402018040201008043D
:1002000002010804020101020408102040800102DA
:1002100004081020408005050505070508080808A2
:10022000020202020A0A080804040404010101018E
:100230000101010103030303030303030407070789
:100240000C0C0C0C0C0C0C0C02020202060606062E
:10025000060606060B0B0B0B0B0B0B0B000022000C
:10026000250028002B002E00310034000201000080
:10027000050108010B0100002100240027002A00CD
:100280002D003000330001010000040107010A01C4
:10029000DE09D00B11241FBECFEFD1E2DEBFCDBFF0
:1002A00000E00CBF13E0A0E0B2E0EAE8FEE200E00C
:1002B0000BBF02C007900D92A030B107D9F724E020
:1002C000A0E0B3E001C01D92A831B207E1F712E04F
:1002D000C4E9D2E000E006C022970109FE010BBF8D
:1002E0000E94C810C039D10780E00807A9F70E9412
:1002F000280D0C94431784CE80E00E943D0E90930D
:10030000590380935803893E23E0920704F5823312
:1003100091058CF0833C91058CF08C3221E09207A2
:1003200084F08B3222E092077CF0863193407CF49B
:1003300084E090E0089583E090E0089580E090E00C
:10034000089581E090E0089582E090E0089585E0CE
:1003500090E00895CF93DF93EC016115710529F4C6
:10036000181619064CF4219707C06130710521F465
:10037000893091050CF4219641E0609152038AE5A1
:1003800093E00E94AE0F4AE050E0BE018AE593E0A0
:100390000E940A0DD0935103C0935003CE01DF9108
:1003A000CF910895AF92BF92CF92DF92EF92FF92DA
:1003B0000F931F93CF93DF9300D01F92CDB7DEB77B
:1003C0008CE1E82E83E0F82E0EE313E093E0A92EF3
:1003D000B12CF701C190D1907F01B501882777FD3D
:1003E0008095982F0E94F3119B01AC0160E070E0B2
:1003F00080E291E40E9406139B01AC01B6018827BC
:1004000077FD8095982F29833A834B835C830E94E4
:10041000F31129813A814B815C810E94A312F8017A
:1004200061937193819391938F01F1E0AF1AB108B9
:1004300080F6209142033091430340914403509150
:10044000450360913E0370913F038091400390917A
:1004500041030E94F01020914603309147034091E0
:100460004803509149030E94F01020914A033091B3
:100470004B0340914C0350914D030E94F0100E9499
:10048000C01160931A0270931B0280931C02909318
:100490001D0270934F0360934E03CB010F900F909A
:1004A0000F900F90DF91CF911F910F91FF90EF90E0
:1004B000DF90CF90BF90AF900895AF92BF92CF9250
:1004C000DF92EF92FF920F931F93CF93DF9300D0B1
:1004D0001F92CDB7DEB720E1C22E23E0D22E36E246
:1004E000E32E33E0F32E45E0A42EB12CF60101916A
:1004F00011916F01B501882777FD8095982F0E9493
:10050000F3119B01AC0160E070E080E291E40E9495
:1005100006139B01AC01B801882777FD8095982FC1
:1005200029833A834B835C830E94F31129813A81AA
:100530004B815C810E94A312F701619371938193B7
:1005400091937F01F1E0AF1AB10880F61093510347
:100550000093500320912A0330912B0340912C03E8
:1005600050912D03609126037091270380912803F9
:10057000909129030E94F01020912E0330912F03B7
:1005800040913003509131030E94F01020913203CA
:100590003091330340913403509135030E94F010A1
:1005A000209136033091370340913803509139033D
:1005B0000E94F01020913A0330913B0340913C039C
:1005C00050913D030E94F0100E94C01160931602EA
:1005D00070931702809318029093190270934F033F
:1005E00060934E03CB010F900F900F900F90DF910F
:1005F000CF911F910F91FF90EF90DF90CF90BF9020
:10060000AF900895AF92BF92CF92DF92EF92FF9298
:100610000F931F93CF93DF9300D01F92CDB7DEB718
:1006200058E0C52E52E0D52E6EE3E62E63E0F62E9E
:1006300073E0A72EB12CF601019111916F01B50164
:10064000882777FD8095982F0E94F3119B01AC01BC
:1006500060E070E080E291E40E9406139B01AC012F
:10066000B801882777FD8095982F29833A834B839B
:100670005C830E94F31129813A814B815C810E9445
:10068000A312F70161937193819391937F01F1E03C
:10069000AF1AB10880F610935103009350032091D4
:1006A00042033091430340914403509145036091CC
:1006B0003E0370913F0380914003909141030E945B
:1006C000F010209146033091470340914803509128
:1006D00049030E94F01020914A0330914B0340914E
:1006E0004C0350914D030E94F0100E94C011609382
:1006F0001202709313028093140290931502709368
:100700004F0360934E03CB010F900F900F900F900B
:10071000DF91CF911F910F91FF90EF90DF90CF90DD
:10072000BF90AF900895AF92BF92CF92DF92EF92B9
:10073000FF920F931F93CF93DF9300D01F92CDB7FB
:10074000DEB7E0E0CE2EE2E0DE2EFEE3EF2EF3E0B9
:10075000FF2EA3E0AA2EB12CF601019111916F0199
:10076000B501882777FD8095982F0E94F3119B0192
:10077000AC0160E070E080E291E40E9406139B010E
:10078000AC01B801882777FD8095982F29833A839B
:100790004B835C830E94F31129813A814B815C81F8
:1007A0000E94A312F70161937193819391937F014A
:1007B000F1E0AF1AB10880F6109351030093500393
:1007C00020914203309143034091440350914503EB
:1007D00060913E0370913F038091400390914103EB
:1007E0000E94F01020914603309147034091480346
:1007F000509149030E94F01020914A0330914B031D
:1008000040914C0350914D030E94F0100E94C01182
:10081000709311026093100270934F0360934E0324
:10082000CB010F900F900F900F90DF91CF911F9100
:100830000F91FF90EF90DF90CF90BF90AF90089511
:100840008F929F92AF92BF92CF92DF92EF92FF92E0
:10085000CF93DF9326E040E855E260E070E082E766
:1008600093E0D6D620911A0230911B0240911C02CF
:1008700050911D02A5E0B0E00E94B8100E94F31153
:100880006B017C0160930C0370930D0380930E0346
:1008900090930F038090120290901302A090140284
:1008A000B0901502A0911002B0911102A50194011F
:1008B0000E94C21020911602309117024091180236
:1008C00050911902261B370B480B590BA8EEB3E0C9
:1008D0000E94B8100E94F311A70196010E945811BE
:1008E000609308037093090380930A0390930B03AA
:1008F000C501B4010E94F3119B01AC01C701B6010F
:100900000E9458110E94C011709307036093060360
:100910008091240390912503009711F460E003C0B7
:10092000019721F461E08CE00E94EE0EE12CF12CA5
:10093000C8EED3E061E08BE00E94EE0E6091080308
:100940007091090380910A0390910B030E94C511D5
:100950000E94AB0D60E08BE00E94EE0ECDDC909328
:100960002B0280932A02049759F460910C03709132
:100970000D0380910E0390910F030E94C0117B0123
:100980008FEFE81AF80A4AE050E0B70182E793E0F7
:100990000E94110D6091060370910703C7010E9428
:1009A0007D10892B31F561E08DE00E94EE0E60E54F
:1009B00070E080E090E00E94AB0D60E08DE00E946E
:1009C000EE0E6DE272E082E793E076D7809110023E
:1009D000909111028C9FB0018D9F700D9C9F700DA6
:1009E000112460557109882777FD8095982F0E9402
:1009F000AB0DB701882777FD8095982F0E94F311E2
:100A000020910C0330910D0340910E0350910F0380
:100A10000E94541187FD8ECFDF91CF91FF90EF9010
:100A2000DF90CF90BF90AF909F908F9008950F93DD
:100A30001F93CF93DF9300D01F92CDB7DEB78C0109
:100A40007F936F9384E392E09F938F93CE010196FF
:100A50009F938F930E946B148981992787FD9095AE
:100A6000C097F801918380838A81992787FD9095AB
:100A7000C097938382838B81992787FD9095C09738
:100A8000958384838C81992787FD9095C097978360
:100A900086830F900F900F900F900F900F900F90F4
:100AA0000F900F900F90DF91CF911F910F910895AC
:100AB0000F931F93CF93DF9300D000D0CDB7DEB755
:100AC0008C017F936F935F934F9389E392E09F93A1
:100AD0008F93CE0101969F938F930E946B1489810F
:100AE000992787FD9095C097F801918380838A812B
:100AF000992787FD9095C097938382838B8199274F
:100B000087FD9095C097958384838C81992787FD75
:100B10009095C097978386838D81992787FD9095BF
:100B2000C097918780878E81992787FD9095C09780
:100B3000938782870FB6F894DEBF0FBECDBF26968F
:100B40000FB6F894DEBF0FBECDBFDF91CF911F91DE
:100B50000F910895EF92FF920F931F93CF93DF931E
:100B6000CDB7DEB761970FB6F894DEBF0FBECDBF2D
:100B700060911A0270911B0280911C0290911D02DB
:100B80000E94F31169837A838B839C8360911602A0
:100B90007091170280911802909119020E94F3112E
:100BA0006D837E838F839887609112027091130208
:100BB00080911402909115020E94F31169877A873F
:100BC0008B879C8780912403909125039E878D8736
:100BD0008091100290911102988B8F87CE0101961F
:100BE0007C0100E010E0F70161917F01C801698B91
:100BF0000E9487166989681719F0C8010E948F162C
:100C00000F5F1F4F0031110571F761960FB6F89411
:100C1000DEBF0FBECDBFDF91CF911F910F91FF902F
:100C2000EF900895EF92FF920F931F93CF93DF936E
:100C3000CDB7DEB760970FB6F894DEBF0FBECDBF5D
:100C4000CE0101967C0100E010E0C8010E948716E9
:100C5000F70181937F010F5F1F4F00311105A9F745
:100C600069817A818B819C810E94C01160931A02F4
:100C700070931B0280931C0290931D026D817E81F4
:100C80008F8198850E94C01160931602709317029D
:100C9000809318029093190269857A858B859C85CB
:100CA0000E94C01160931202709313028093140289
:100CB000909315028D859E85909325038093240340
:100CC0008F859889909311028093100260960FB6D9
:100CD000F894DEBF0FBECDBFDF91CF911F910F9172
:100CE000FF90EF9008951F93CF93DF939BDF26E053
:100CF00040E855E260E070E082E793E089D46091DB
:100D00001A0270911B028CE193E091DE4091160271
:100D100050911702609118027091190280E193E0DE
:100D2000C7DE609112027091130288E092E07FDECC
:100D3000609110027091110280E092E078DE20E074
:100D400042E060E18AE593E00E94C60F40E060E087
:100D50008AE593E00E94AE0F61E08BE00E94B50E41
:100D600061E08CE00E94B50E61E08DE0FED760E0AE
:100D70008DE00E94EE0E6EE372E08AE593E091D57D
:100D800041E060E08AE593E00E94AE0FC0E041E000
:100D90006C2F8AE593E00E94AE0F6FE472E08AE563
:100DA00093E07FD564E670E080E090E0D4D641E047
:100DB0006C2F8AE593E00E94AE0F6EEA72E08AE53E
:100DC00093E06FD5CF5FC03111F768EE73E080E03C
:100DD00090E0C1D68AE593E00E94A90F60911E02BF
:100DE00070911F028AE593E05CD564E670E080E0D4
:100DF00090E0B1D641E060E08AE593E00E94AE0F5A
:100E0000CCE1D3E010E041E0612F8AE593E00E945D
:100E1000AE0F699179914AE050E08AE593E0FAD506
:100E20001F5F143081F741E064E08AE593E00E949F
:100E3000AE0F61E572E08AE593E033D540911A0286
:100E400050911B0260911C0270911D022AE030E05B
:100E500082E793E0DF91CF911F9195C51F93CF93C8
:100E6000DF934ADA90932B0280932A020597C9F305
:100E700066E970E080E090E06ED6209156033091F4
:100E800057032115310509F059C080912A0290912C
:100E90002B028330910579F084309105D1F00297CF
:100EA00009F0BFC18091540390915503009709F454
:100EB000B8C1019709C080915403909155038530C2
:100EC000910509F4AEC101969093550380935403A4
:100ED000A8C181E090E0909357038093560320913E
:100EE0005203309153038091540390915503243061
:100EF000310554F09C012D7F232B31F423E030E0A9
:100F000030935303209352032091520330915303A3
:100F1000121613063CF48330910524F0109253030B
:100F200010925203059709F07CC114DE81E090E035
:100F3000909305038093040383DC73C18091540371
:100F400090915503009709F042C080912A02909138
:100F50002B028230910509F43BC1B4F40097E9F00B
:100F6000019709F05EC1E0915203F0915303EE0F37
:100F7000FF1FE45EFC4F8081918190935103809329
:100F8000500360E070E019C08330910509F4AAC0F5
:100F9000049709F046C106DA2CC1E0915203F091A2
:100FA0005303EE0FFF1FE45EFC4F8081918190930D
:100FB00051038093500361E070E0CCD9E09152037B
:100FC000F0915303EE0FFF1FE45EFC4FFAC0813037
:100FD000910509F042C080912A0290912B02823043
:100FE000910509F4F5C0B4F40097E9F0019709F010
:100FF00018C1E0915203F0915303EE0FFF1FE05F21
:10100000FC4F80819181909351038093500360E065
:1010100070E019C08330910509F4E2C0049709F02B
:1010200000C14BDAE6C0E0915203F0915303EE0F9A
:10103000FF1FE05FFC4F808191819093510380936B
:10104000500361E070E086D9E0915203F0915303C0
:10105000EE0FFF1FE05FFC4FB4C08230910509F036
:101060004FC080912A0290912B028230910509F4A1
:10107000AFC0B4F40097E1F0019709F0D2C0E0915D
:101080005203F0915303EE0FFF1FE85FFD4F808185
:101090009181909351038093500360E070E018C0F9
:1010A00083309105F9F0049709F0BBC0ABDAA1C019
:1010B000E0915203F0915303EE0FFF1FE85FFD4FE5
:1010C00080819181909351038093500361E070E09F
:1010D00041D9E0915203F0915303EE0FFF1FE85FF7
:1010E000FD4F6FC08091520390915303833091055F
:1010F00009F497C00196909353038093520391C0D3
:1011000083309105D1F480912A0290912B02813095
:10111000910571F08430910509F47DC0892B09F0A7
:1011200080C081E090E0909325038093240379C0F0
:10113000109225031092240374C08430910509F0A5
:1011400062C080912A0290912B028230910509F4AD
:101150003FC0B4F40097E1F0019709F062C0E0915C
:101160005203F0915303EE0FFF1FE050FE4F8081BA
:101170009181909351038093500360E070E018C018
:101180008330910569F1049709F04BC0CCDA31C086
:10119000E0915203F0915303EE0FFF1FE050FE4F1A
:1011A00080819181909351038093500361E070E0BE
:1011B000D1D8E0915203F0915303EE0FFF1FE0509E
:1011C000FE4F80915003909151039183808329C0F9
:1011D0008091520390915303009719F101978BCF9F
:1011E00080915203909153038530910509F082CF8D
:1011F00018C080915603909157030197909357031D
:10120000809356030EC0059761F480912A02909155
:101210002B02049731F42150310930935703209366
:10122000560385E090E090932B0280932A028AE592
:1012300093E08FD640E060E08AE593E08FD6E091BE
:101240005403F0915503EE0FFF1FE25EFD4F6081E6
:1012500071818AE593E025D341E060E08AE593E07F
:101260007DD6809154039091550382309105C9F148
:101270004CF4009799F0019709F068C0C0E1D3E001
:1012800010E01FC08430910509F44AC00CF43CC042
:10129000059709F05BC060E772E055C0CCE1D3E090
:1012A00010E041E0612F8AE593E058D66991799189
:1012B0004AE050E08AE593E0ADD31F5F143089F730
:1012C00045C041E0612F8AE593E048D66991799164
:1012D0004AE050E08AE593E09DD31F5F163089F71E
:1012E00035C0C8E0D2E010E041E0612F8AE593E02C
:1012F00035D6699179914AE050E08AE593E08AD346
:101300001F5F143089F722C0809124039091250338
:10131000892B19F46CE572E016C067E672E013C021
:10132000C0E0D2E010E041E0612F8AE593E016D6FC
:10133000699179914AE050E08AE593E06BD31F5FB1
:10134000143089F703C08AE593E0ABD2809154034F
:1013500090915503892B51F441E064E08AE593E0D4
:10136000FDD561E572E08AE593E09BD2809154035C
:1013700090915503019751F441E066E08AE593E0CE
:10138000EDD566E772E08AE593E08BD28091560353
:1013900090915703019761F441E0609152038AE50F
:1013A00093E0DCD58AE593E0DF91CF911F9199C658
:1013B0008AE593E0DF91CF911F918DC6CF92EF9296
:1013C0000F93B7E0CB2E06E0E02E05E024E049E0E5
:1013D00068E08AE593E060D68FD360930003709352
:1013E000010380930203909303030F91EF90CF903A
:1013F0000895FC01818D228D90E0805C9F4F821BBF
:1014000091098F7399270895FC01918D828D98170A
:1014100031F0828DE80FF11D858D90E008958FEFFA
:101420009FEF0895FC01918D828D981761F0828D58
:10143000DF01A80FB11D5D968C91928D9F5F9F7308
:10144000928F90E008958FEF9FEF089587EC9BE0D7
:10145000892B39F080E090E0892B19F098D1811127
:1014600025C080E090E0892B41F080E090E0892B5E
:1014700021F00E94000081111CC080E090E0892BC7
:1014800041F080E090E0892B21F00E940000811162
:1014900013C080E090E0892BA1F080E090E0892BE0
:1014A00081F00E94000081110AC008950E9400008E
:1014B000D8CF0E940000E1CF0E940000EACF0C9438
:1014C00000000895FC01848DDF01A80FB11DA35A0F
:1014D000BF4F2C91848D90E001968F739927848F54
:1014E000A689B7892C93A089B1898C9180648C934B
:1014F000938D848D981306C00288F389E02D808136
:101500008F7D80830895CF93DF93EC01888D8823AE
:10151000C1F0EA89FB89808185FD05C0A889B98968
:101520008C9186FD0EC00FB607FCF5CF808185FF3C
:10153000F2CFA889B9898C9185FFEDCFCE01C2DFAA
:10154000E8CFDF91CF910895CF92DF92FF920F9372
:101550001F93CF93DF931F92CDB7DEB76C0181E06D
:10156000D60158968C9358975B969C915B975C96A6
:101570008C915C97981307C05096ED91FC91519710
:10158000808185FD2DC0F601038D10E00F5F1F4F98
:101590000F731127F02EF601848DF81210C00FB6CC
:1015A00007FCF9CFD6015096ED91FC9151978081BF
:1015B00085FFF1CFC601698385DF6981ECCF838D1B
:1015C000E80FF11DE35AFF4F6083D6015B960C9341
:1015D0005B975296ED91FC915397808180620CC08D
:1015E000D6015696ED91FC91579760835096ED91F8
:1015F000FC91519780818064808381E090E00F901E
:10160000DF91CF911F910F91FF90DF90CF900895C0
:10161000BF92CF92DF92EF92FF92CF93DF93EC01D4
:101620006A017B01B22EE889F98982E08083411545
:1016300081EE58076105710599F060E079E08DE36E
:1016400090E0A70196016CD521503109410951095B
:101650005695479537952795211580E1380790F0E5
:10166000E889F989108260E874E88EE190E0A701CA
:10167000960156D521503109410951095695479592
:1016800037952795EC85FD853083EE85FF85208392
:10169000188EEC89FD89B082EA89FB89808180619E
:1016A0008083EA89FB89808188608083EA89FB895D
:1016B000808180688083EA89FB8980818F7D808337
:1016C000DF91CF91FF90EF90DF90CF90BF90089582
:1016D0001F920F920FB60F9211240BB60F922F93F9
:1016E0008F939F93EF93FF93E0918203F091830395
:1016F0008081E0918803F091890382FD12C090817E
:1017000080918B038F5F8F7320918C03821751F030
:10171000E0918B03F0E0EE58FC4F958F80938B03A4
:1017200001C08081FF91EF919F918F912F910F9038
:101730000BBE0F900FBE0F901F9018951F920F9227
:101740000FB60F9211240BB60F922F933F934F9326
:101750005F936F937F938F939F93AF93BF93EF9319
:10176000FF9382E793E0AEDEFF91EF91BF91AF91DF
:101770009F918F917F916F915F914F913F912F91A9
:101780000F900BBE0F900FBE0F901F90189582E721
:1017900093E02FDE21E0892B09F420E0822F0895C9
:1017A000109275031092740388EE93E0A0E0B0E00D
:1017B0008093760390937703A0937803B093790393
:1017C0008BED92E0909373038093720385EC90E02D
:1017D00090937F0380937E0384EC90E09093810349
:1017E0008093800380EC90E0909383038093820346
:1017F00081EC90E0909385038093840382EC90E0E9
:10180000909387038093860386EC90E090938903FE
:101810008093880310928B0310928C0310928D0397
:1018200010928E030895CF92DF92EF92FF920F9362
:101830001F93CF93DF937C016A01EB0100E010E07E
:101840000C151D0571F06991D701ED91FC91019086
:10185000F081E02DC7011995892B19F00F5F1F4FFB
:10186000EFCFC801DF91CF911F910F91FF90EF90C3
:10187000DF90CF9008956115710581F0DB010D9027
:101880000020E9F7AD0141505109461B570BDC011F
:10189000ED91FC910280F381E02D199480E090E0BD
:1018A0000895E9CFDC01ED91FC910190F081E02DEC
:1018B000199467EE72E0DFCF0F931F93CF93DF93FE
:1018C000EC01D9DF8C01CE01F4DF800F911FDF9195
:1018D000CF911F910F9108958F929F92AF92BF92D7
:1018E000CF92DF92EF92FF920F931F93CF93DF93EC
:1018F000CDB7DEB7A1970FB6F894DEBF0FBECDBF50
:101900007C01C42EE52FCB01D22E19A221E02D158A
:1019100010F02AE0D22E8E010F5D1F4F8D2C912CDE
:10192000A12CB12C6C2D7E2FA5019401F9D38C2D07
:10193000D29E80191124015011098A3014F4805D5F
:1019400001C0895CF80180832115310541055105ED
:1019500021F0C22EE32FCA01E5CFB801C7018BDF0A
:10196000A1960FB6F894DEBF0FBECDBFDF91CF9129
:101970001F910F91FF90EF90DF90CF90BF90AF90AD
:101980009F908F900895CF92DF92EF92FF920F93E6
:101990001F93CF93DF93EC016A017B012115310581
:1019A00079F4E881F9810190F081E02D642FDF91D5
:1019B000CF911F910F91FF90EF90DF90CF901994EE
:1019C0002A303105D9F477FF18C06DE26BDF8C0146
:1019D00044275527BA014C195D096E097F092AE091
:1019E000CE017ADF800F911FDF91CF911F910F9170
:1019F000FF90EF90DF90CF9008952AE0B701A60105
:101A0000CE01DF91CF911F910F91FF90EF90DF906A
:101A1000CF9062CF9A01AB01662757FD6095762F74
:101A2000B2CF0F931F93CF93DF93EC019A01AB01D9
:101A3000662757FD6095762FA6DF8C01CE0139DF32
:101A4000800F911FDF91CF911F910F9108950895FD
:101A5000B2D0FDDF48D9C6E2DAE000DA2097E9F338
:101A6000F5DCFBCF1F920F920FB60F9211242F932C
:101A70003F938F939F93AF93BF9380911004909166
:101A80001104A0911204B091130430910F0423E0CB
:101A9000230F2D3720F40196A11DB11D05C026E8A6
:101AA000230F0296A11DB11D20930F0480931004F3
:101AB00090931104A0931204B09313048091140422
:101AC00090911504A0911604B09117040196A11DE0
:101AD000B11D8093140490931504A0931604B09341
:101AE0001704BF91AF919F918F913F912F910F90CC
:101AF0000FBE0F901F9018952FB7F89460911004A7
:101B00007091110480911204909113042FBF0895D5
:101B10003FB7F8948091140490911504A091160495
:101B2000B091170426B5A89B05C02F3F19F0019668
:101B3000A11DB11D3FBF6627782F892F9A2F620FF5
:101B4000711D811D911D42E0660F771F881F991F2F
:101B50004A95D1F70895CF92DF92EF92FF92CF93FB
:101B6000DF936B017C01D4DFEB01C114D104E104EC
:101B7000F10479F068D1CCDF6C1B7D0B683E7340BB
:101B8000A0F381E0C81AD108E108F108C851DC4F80
:101B9000ECCFDF91CF91FF90EF90DF90CF90089541
:101BA0008230910538F0880F991F880F991F05978B
:101BB0000197F1F70895789484B5826084BD84B567
:101BC000816084BD85B5826085BD85B5816085BD38
:101BD000EEE6F0E0808181608083E1E8F0E0108251
:101BE000808182608083808181608083E0E8F0E092
:101BF000808181608083E1EBF0E08081846080837C
:101C0000E0EBF0E0808181608083E1E9F0E08081B9
:101C100082608083808181608083E0E9F0E0808160
:101C200081608083E1EAF0E080818260808380814E
:101C300081608083E0EAF0E0808181608083E1E27E
:101C4000F1E0808182608083808181608083E0E236
:101C5000F1E0808181608083EAE7F0E08081846048
:101C600080838081826080838081816080838081A5
:101C7000806880831092C1000895863308F08653EF
:101C800020917B00982F9870277F922B90937B0058
:101C9000877020912C0290E4299F90011124822BBF
:101CA00080937C0080917A00806480937A00809198
:101CB0007A0086FDFCCF809178002091790090E039
:101CC000922B089590E0FC013197E231F10508F084
:101CD0004BC0EE58FF4F46C2809180008F7703C003
:101CE000809180008F7D8093800008958091800096
:101CF000877FF9CF84B58F7702C084B58F7D84BD8F
:101D000008958091B0008F7703C08091B0008F7DDF
:101D10008093B0000895809190008F7707C08091E4
:101D200090008F7D03C080919000877F809390000A
:101D300008958091A0008F7707C08091A0008F7DCB
:101D400003C08091A000877F8093A00008958091B8
:101D500020018F7707C0809120018F7D03C0809183
:101D60002001877F809320010895CF93DF9390E037
:101D7000FC01E053FE4F2491FC01EA5EFD4F84918B
:101D8000882349F190E0880F991FFC01EA58FD4F24
:101D9000A591B491845A9D4FFC01C591D4919FB7F0
:101DA000611108C0F8948C91209582238C938881CE
:101DB00082230AC0623051F4F8948C91322F30950E
:101DC00083238C938881822B888304C0F8948C9120
:101DD000822B8C939FBFDF91CF9108950F931F9318
:101DE000CF93DF931F92CDB7DEB7282F30E0F901F4
:101DF000E657FE4F8491F901E053FE4F1491F9012B
:101E0000EA5EFD4F04910023C1F0882319F0698335
:101E100059DF6981E02FF0E0EE0FFF1FE45AFD4F1C
:101E2000A591B4919FB7F8948C91611103C010955E
:101E3000812301C0812B8C939FBF0F90DF91CF91A5
:101E40001F910F9108950895CF93DF93EC0160E007
:101E50008E81C4DF81E090E0A3DE61E08E81BEDF91
:101E600081E090E09DDE60E08E81B8DF84E690E066
:101E7000DF91CF9195CEEF92FF920F931F93CF9367
:101E8000DF938C01C0E0D0E0E62EF12CB7010C2EE0
:101E900002C0759567950A94E2F76170F801EC0F3E
:101EA000FD1F87819BDF2196C430D10579F7C801DA
:101EB000DF91CF911F910F91FF90EF90C5CFEF92DF
:101EC000FF920F931F93CF93DF938C01C0E0D0E07C
:101ED000E62EF12CB7010C2E02C0759567950A9479
:101EE000E2F76170F801EC0FFD1F878177DF219623
:101EF000C830D10579F7C801DF91CF911F910F91BB
:101F0000FF90EF90A1CF1F93CF93DF93EC01162F9B
:101F1000642F8C8163DF8D818F3F11F060E05EDF85
:101F20008F85612F84FF05C0CE01DF91CF911F9176
:101F3000C6CF70E084E0759567958A95E1F7CE018C
:101F40009ADF612FCE01DF91CF911F9194CF40E0B6
:101F5000DACF61E0FCDF80ED97E022CE443008F07C
:101F600043E0FC012389421710F04FEF420FFC01C0
:101F7000E40FF11D2489260F2068622FE8CFFC01B1
:101F80006089262F2460208B6C60E1CF0F931F9314
:101F9000CF93DF93EC01423018F08F8588608F87F4
:101FA0004B8B1C8A80E48D8B6E8B70E0605C7F4F66
:101FB0006F8B222329F0413019F48F8584608F873D
:101FC00061E08C81D2DE8D818F3F11F061E0CDDE4A
:101FD00061E08E81CADE00E010E08F8584FF03C0DF
:101FE00088E090E002C084E090E0081719074CF404
:101FF000FE01E00FF11F61E08781B7DE0F5F1F4F29
:10200000ECCF80E593ECCCDD60E08C81E7DE60E036
:102010008E81E4DE8D818F3F11F060E0DFDE6F8521
:1020200064FD16C063E0CE0126DF84E991E1B8DDEE
:1020300063E0CE0120DF84E991E1B2DD63E0CE010F
:102040001ADF86E990E0ACDD62E0CE0114DF11C05A
:102050006062CE017CDF84E991E1A2DD6F85606280
:10206000CE0175DF86E990E09BDD6F856062CE0171
:102070006EDF6F856062CE016ADF84E0888BCE01FF
:102080007EDFCE0166DF82E0898B66E0CE01DF91E4
:10209000CF911F910F915BCFCF92EF920F93FC01E5
:1020A000138212828CEF92E09183808364838FEF9E
:1020B0008583468327830087E186C286138614863C
:1020C00015861686178620E041E060E1CF010F916A
:1020D000EF90CF905BCFFC0160896E7F608B686072
:1020E00036CFFC016089262F2160208B69602FCFBD
:1020F00041E009DF81E090E0089597FB072E16F498
:10210000009406D077FD08D047D007FC05D03EF4F8
:10211000909581959F4F0895709561957F4F089593
:10212000A1E21A2EAA1BBB1BFD010DC0AA1FBB1FDB
:10213000EE1FFF1FA217B307E407F50720F0A21B4D
:10214000B30BE40BF50B661F771F881F991F1A94BA
:1021500069F760957095809590959B01AC01BD01E4
:10216000CF010895EE0FFF1F0590F491E02D199413
:1021700027D0A59F900DB49F900DA49F800D911D19
:1021800011240895B7FFF4CFF3DF821B930B08955A
:102190000790F691E02D1994AA1BBB1B51E107C0D3
:1021A000AA1FBB1FA617B70710F0A61BB70B881FE7
:1021B000991F5A95A9F780959095BC01CD01089576
:1021C000A29FB001B39FC001A39F700D811D112478
:1021D000911DB29F700D811D1124911D08955058BD
:1021E000BB27AA270ED075C166D130F06BD120F085
:1021F00031F49F3F11F41EF45BC10EF4E095E7FB50
:1022000051C1E92F77D180F3BA17620773078407AA
:10221000950718F071F49EF58FC10EF4E0950B2E22
:10222000BA2FA02D0B01B90190010C01CA01A00128
:102230001124FF27591B99F0593F50F4503E68F183
:102240001A16F040A22F232F342F4427585FF3CFC4
:10225000469537952795A795F0405395C9F77EF495
:102260001F16BA0B620B730B840BBAF09150A1F0DE
:10227000FF0FBB1F661F771F881FC2F70EC0BA0F64
:10228000621F731F841F48F4879577956795B795EC
:10229000F7959E3F08F0B3CF9395880F08F09927E4
:1022A000EE0F979587950895D9D008F481E00895A9
:1022B0000CD00FC107D140F0FED030F021F45F3FC9
:1022C00019F0F0C0511139C1F3C014D198F399231A
:1022D000C9F35523B1F3951B550BBB27AA276217EA
:1022E0007307840738F09F5F5F4F220F331F441F2F
:1022F000AA1FA9F333D00E2E3AF0E0E830D0915067
:102300005040E695001CCAF729D0FE2F27D0660F53
:10231000771F881FBB1F261737074807AB07B0E892
:1023200009F0BB0B802DBF01FF2793585F4F2AF0A8
:102330009E3F510568F0B6C000C15F3FECF3983E88
:10234000DCF3869577956795B795F7959F5FC9F705
:10235000880F911D9695879597F90895E1E0660F8E
:10236000771F881FBB1F621773078407BA0720F007
:10237000621B730B840BBA0BEE1F88F7E095089570
:1023800004D06894B111D9C00895BCD088F09F578B
:1023900090F0B92F9927B751A0F0D1F0660F771FB1
:1023A000881F991F1AF0BA95C9F712C0B13081F091
:1023B000C3D0B1E00895C0C0672F782F8827B85FD9
:1023C00039F0B93FCCF3869577956795B395D9F7F2
:1023D0003EF490958095709561957F4F8F4F9F4FFC
:1023E0000895E89409C097FB3EF490958095709508
:1023F00061957F4F8F4F9F4F9923A9F0F92F96E951
:10240000BB279395F695879577956795B795F111C5
:10241000F8CFFAF4BB0F11F460FF1BC06F5F7F4F62
:102420008F4F9F4F16C0882311F096E911C0772374
:1024300021F09EE8872F762F05C0662371F096E87D
:10244000862F70E060E02AF09A95660F771F881F4C
:10245000DAF7880F9695879597F90895990F0008F0
:10246000550FAA0BE0E8FEEF16161706E807F90766
:10247000C0F012161306E407F50798F0621B730B01
:10248000840B950B39F40A2661F0232B242B252B82
:1024900021F408950A2609F4A140A6958FEF811D25
:1024A000811D089597F99F6780E870E060E00895C6
:1024B0009FEF80EC089500240A941616170618065C
:1024C0000906089500240A94121613061406050638
:1024D0000895092E0394000C11F4882352F0BB0FC9
:1024E00040F4BF2B11F460FF04C06F5F7F4F8F4F2C
:1024F0009F4F089557FD9058440F551F59F05F3F67
:1025000071F04795880F97FB991F61F09F3F79F015
:1025100087950895121613061406551FF2CF469597
:10252000F1DF08C0161617061806991FF1CF869519
:102530007105610508940895E894BB2766277727FD
:10254000CB0197F908950BD0C4CFB5DF28F0BADFDF
:1025500018F0952309F0A6CFABCF1124EECFCADF38
:10256000A0F3959FD1F3950F50E0551F629FF001A6
:10257000729FBB27F00DB11D639FAA27F00DB11DFF
:10258000AA1F649F6627B00DA11D661F829F222788
:10259000B00DA11D621F739FB00DA11D621F839F0F
:1025A000A00D611D221F749F3327A00D611D231FE5
:1025B000849F600D211D822F762F6A2F11249F5733
:1025C00050408AF0E1F088234AF0EE0FFF1FBB1F56
:1025D000661F771F881F91505040A9F79E3F5105F5
:1025E00070F060CFAACF5F3FECF3983EDCF38695A6
:1025F00077956795B795F795E7959F5FC1F7FE2BA0
:10260000880F911D9695879597F90895FA01EE0F19
:10261000FF1F30962105310599F16115710561F4AF
:102620008038BFE39B0749F168949038810561F0D9
:102630008038BFEF9B0741F0992342F5FF3FE1054A
:102640003105210511F1E8940894E795D901AA23F1
:1026500029F4AB2FBE2FF85FD0F310C0FF5F70F4EA
:10266000A695E0F7F73950F019F0FF3A38F49F7764
:102670009F930CD00F9007FC905808953EF018CF10
:1026800060E070E080E89FE308954FE79F775F93F5
:102690004F933F932F939ED02F913F914F915F91F6
:1026A00052DF05C019F40EF0FDCE46CF01CF2ADF70
:1026B000C8F39638C0F707F80F92E8942BE33AEA8C
:1026C00048EB5FE74EDF0F920F920F924DB75EB768
:1026D0000F92C0D0E8E0F1E016D04F915F91EF91FA
:1026E000FF91E595EE1FFF1F49F0FE57E068442774
:1026F000EE0F441FFA95E1F74195550B32D00F903C
:1027000007FE26C00895DF93CF931F930F93FF9288
:10271000EF92DF927B018C01689405C0DA2EEF0105
:102720001EDFFE01E894A5912591359145915591C3
:10273000AEF3EF0166DDFE019701A801DA9479F7A7
:10274000DF90EF90FF900F911F91CF91DF9108954F
:102750009B01AC0160E070E080E89FE3A9CDA2CED0
:10276000ACC0D0DEE8F39923D9F3940F511DBBF32D
:102770009150504094F059F0882332F0660F771F43
:10278000881F91505040C1F79E3F510544F7880F74
:10279000911D9695879597F908955F3FACF0983E07
:1027A0009CF0BB27869577956795B79508F4B1603F
:1027B0009395C1F7BB0F58F711F460FFE8CF6F5F37
:1027C0007F4F8F4F9F4FE3CFB8CE0EF076C070CEC5
:1027D000689468CE97DEC8F39923D1F3C6F3DF93EC
:1027E000CF931F930F93FF92C92FDD2788232AF0E1
:1027F0002197660F771F881FDAF720E030E040E866
:102800005FEB9FE3883920F0803E30F021968F7790
:10281000E7DCE0E3F1E003C0E3DCEDE5F1E073DFEA
:102820008B01BE01EC01FB2E6F5771097595771F67
:10283000880B990BD8DD28E132E741E35FE38FDEB7
:10284000AF2D9801AE01FF900F911F91CF91DF91B5
:10285000D8DC3FCEFA01DC01AA0FBB1F9B01AC0103
:10286000BF5728F422273327442750781FC0B75179
:1028700088F4AB2F0024469537952795011CA39526
:10288000D2F3002069F0220F331F441FB395DAF30F
:102890000DD0A5CC61307105A0E88A07B94630F4A7
:1028A0009B01AC016627772788279078309621F026
:1028B000208331834283538308959F3F31F09150A9
:1028C00020F4879577956795B795880F911D969514
:1028D000879597F908950F931F93CF93DF93CDB703
:1028E000DEB72E970FB6F894DEBF0FBECDBF0E89B0
:1028F0001F8986E08C831A8309838FEF9FE79E836D
:102900008D83AE01465E5F4F688D798DCE01019655
:1029100010D0EF81F885E00FF11F10822E960FB6D0
:10292000F894DEBF0FBECDBFDF91CF911F910F9105
:1029300008952F923F924F925F926F927F928F9263
:102940009F92AF92BF92CF92DF92EF92FF920F933E
:102950001F93CF93DF93CDB7DEB72C970FB6F894C4
:10296000DEBF0FBECDBF7C016B018A01FC01178267
:102970001682838181FFB0C1CE0101964C01F7011F
:102980009381F60193FD859193FF81916F018823D7
:1029900009F49EC1853239F493FD859193FF8191AD
:1029A0006F01853221F4B70190E0DDD1E8CF512CE1
:1029B000312C20E02032A0F48B3269F030F48032E8
:1029C00059F0833269F420612CC08D3239F08033A4
:1029D00039F4216026C02260246023C0286021C011
:1029E00027FD27C030ED380F3A3078F426FF06C0B7
:1029F000FAE05F9E300D1124532E13C08AE0389EFA
:102A0000300D1124332E20620CC08E3221F426FDAD
:102A10005FC1206406C08C3611F4206802C088367D
:102A200041F4F60193FD859193FF81916F0181112E
:102A3000C1CF982F9F7D9554933028F40C5F1F4F82
:102A4000FFE3F9830DC0833631F0833771F08335AE
:102A500009F057C021C0F801808189830E5F1F4FA4
:102A600044244394512C540114C03801F2E06F0EF9
:102A7000711CF801A080B18026FF03C0652D70E0B5
:102A800002C06FEF7FEFC5012C8762D12C0183015B
:102A90002C852F77222E16C03801F2E06F0E711CA4
:102AA000F801A080B18026FF03C0652D70E002C050
:102AB0006FEF7FEFC5012C8740D12C012C8520685A
:102AC000222E830123FC19C0832D90E0481659065D
:102AD000A0F4B70180E290E046D13A94F5CFF50139
:102AE00027FC859127FE81915F01B70190E03BD1E2
:102AF00031103A94F1E04F1A51084114510479F71A
:102B0000DEC0843611F0893631F5F80127FF07C0A1
:102B100060817181828193810C5F1F4F08C0608149
:102B20007181882777FD8095982F0E5F1F4F2F7634
:102B3000B22E97FF09C090958095709561957F4F53
:102B40008F4F9F4F2068B22E2AE030E0A4013DD184
:102B5000A82EA81843C0853729F42F7EB22E2AE06C
:102B600030E025C0F22FF97FBF2E8F36C1F018F468
:102B7000883579F0ADC0803719F0883721F0A8C0CA
:102B80002F2F2061B22EB4FE0DC08B2D8460B82E85
:102B900009C024FF0AC09F2F9660B92E06C028E006
:102BA00030E005C020E130E002C020E132E0F80171
:102BB000B7FE07C060817181828193810C5F1F4FD6
:102BC00006C06081718180E090E00E5F1F4FA4011C
:102BD000FCD0A82EA818FB2DFF77BF2EB6FE0BC089
:102BE0002B2D2E7FA51450F4B4FE0AC0B2FC08C0F1
:102BF0002B2D2E7E05C07A2C2B2D03C07A2C01C0E4
:102C0000752C24FF0DC0FE01EA0DF11D808180337B
:102C100011F4297E09C022FF06C07394739404C086
:102C2000822F867809F0739423FD12C020FF06C01E
:102C30005A2C731418F4530C5718732C731460F433
:102C4000B70180E290E02C878ED073942C85F6CF6C
:102C5000731410F4371801C0312C24FF11C0B701D0
:102C600080E390E02C877FD02C8522FF16C021FFC7
:102C700003C088E590E002C088E790E0B7010CC08F
:102C8000822F867851F021FD02C080E201C08BE2E4
:102C900027FD8DE2B70190E066D0A51430F4B701AE
:102CA00080E390E060D05A94F8CFAA94F401EA0D42
:102CB000F11D8081B70190E056D0A110F6CF3320EE
:102CC00009F45DCEB70180E290E04DD03A94F7CFA1
:102CD000F7018681978102C08FEF9FEF2C960FB688
:102CE000F894DEBF0FBECDBFDF91CF911F910F9142
:102CF000FF90EF90DF90CF90BF90AF909F908F901C
:102D00007F906F905F904F903F902F900895F9992A
:102D1000FECF92BD81BDF89A992780B50895262FE0
:102D2000F999FECF1FBA92BD81BD20BD0FB6F894B0
:102D3000FA9AF99A0FBE01960895FC010590615028
:102D400070400110D8F7809590958E0F9F1F0895C1
:102D5000FC016150704001900110D8F7809590956A
:102D60008E0F9F1F08950F931F93CF93DF93182FFC
:102D7000092FEB018B8181FD03C08FEF9FEF20C0F6
:102D800082FF10C04E815F812C813D814217530725
:102D90007CF4E881F9819F012F5F3F4F39832883BD
:102DA000108306C0E885F985812F1995892B29F7AD
:102DB0002E813F812F5F3F4F3F832E83812F902FA6
:102DC000DF91CF911F910F910895FA01AA27283022
:102DD00051F1203181F1E8946F936E7F6E5F7F4FE8
:102DE0008F4F9F4FAF4FB1E03ED0B4E03CD0670F64
:102DF000781F891F9A1FA11D680F791F8A1F911DB7
:102E0000A11D6A0F711D811D911DA11D20D009F406
:102E100068943F912AE0269F11243019305D319348
:102E2000DEF6CF010895462F4770405D4193B3E031
:102E30000FD0C9F7F6CF462F4F70405D4A3318F0D8
:102E4000495D31FD4052419302D0A9F7EACFB4E089
:102E5000A6959795879577956795BA95C9F7009741
:102E60006105710508959B01AC010A2E06945795E2
:102E7000479537952795BA95C9F7620F731F841F39
:0A2E8000951FA01D0895F894FFCFE0
:102E8A000000000000000100000000000000010036
:102E9A0001008D000000377F00007B0000008002E7
:102EAA009102A102B002C102CE0205000163616D66
:102EBA006572610025303469002530366900556E27
:102ECA00676572536C696465722076302E31002A08
:102EDA0000286D61782034303030290046726F6DD9
:102EEA00204D6F746F7200546F204D6F746F7200B3
:102EFA0053746F70210073283C33323536372900FA
:102F0A0030312044697374616E6365286D6D293EA2
:102F1A00003C203032204475726174696F6E203E25
:102F2A00003C203033204672616D6573203E2000DC
:102F3A003C20303420446972656374696F6E203EA8
:102F4A00003C2030352053687574746572003C204B
:102F5A0030362052756E0000000000A40A130CF9E6
:102F6A0009120A040A830A0D0A006E616E00696E6C
:102F7A0066006F7666002E00000000007810130CC1
:00000001FF
